{
  "_format": "hh-sol-artifact-1",
  "contractName": "MockExpansion",
  "sourceName": "contracts/mocks/MockExpansion.sol",
  "abi": [
    {
      "inputs": [],
      "name": "claimFeeAmount",
      "outputs": [
        {
          "internalType": "uint256",
          "name": "",
          "type": "uint256"
        }
      ],
      "stateMutability": "view",
      "type": "function"
    },
    {
      "inputs": [],
      "name": "claimFeeRecipient",
      "outputs": [
        {
          "internalType": "address",
          "name": "",
          "type": "address"
        }
      ],
      "stateMutability": "view",
      "type": "function"
    },
    {
      "inputs": [
        {
          "internalType": "uint256",
          "name": "lootId",
          "type": "uint256"
        }
      ],
      "name": "lootExpansionTokenUri",
      "outputs": [
        {
          "internalType": "string",
          "name": "",
          "type": "string"
        }
      ],
      "stateMutability": "pure",
      "type": "function"
    },
    {
      "inputs": [],
      "name": "maxSupply",
      "outputs": [
        {
          "internalType": "uint256",
          "name": "",
          "type": "uint256"
        }
      ],
      "stateMutability": "view",
      "type": "function"
    },
    {
      "inputs": [
        {
          "internalType": "uint256",
          "name": "_feeAmount",
          "type": "uint256"
        }
      ],
      "name": "setFee",
      "outputs": [],
      "stateMutability": "nonpayable",
      "type": "function"
    },
    {
      "inputs": [
        {
          "internalType": "address",
          "name": "_feeRecipient",
          "type": "address"
        }
      ],
      "name": "setRecipient",
      "outputs": [],
      "stateMutability": "nonpayable",
      "type": "function"
    }
  ],
  "bytecode": "0x608060405234801561001057600080fd5b50610444806100206000396000f3fe608060405234801561001057600080fd5b50600436106100725760003560e01c80637c5e62d0116100505780637c5e62d01461015b57806388888d951461018c578063d5abeb01146101a657610072565b80633bbed4a0146100775780633f5c50c4146100ac57806369fe0e2d1461013e575b600080fd5b6100aa6004803603602081101561008d57600080fd5b503573ffffffffffffffffffffffffffffffffffffffff166101ae565b005b6100c9600480360360208110156100c257600080fd5b50356101f5565b6040805160208082528351818301528351919283929083019185019080838360005b838110156101035781810151838201526020016100eb565b50505050905090810190601f1680156101305780820380516001836020036101000a031916815260200191505b509250505060405180910390f35b6100aa6004803603602081101561015457600080fd5b50356102b4565b6101636102b9565b6040805173ffffffffffffffffffffffffffffffffffffffff9092168252519081900360200190f35b6101946102d5565b60408051918252519081900360200190f35b6101946102db565b600180547fffffffffffffffffffffffff00000000000000000000000000000000000000001673ffffffffffffffffffffffffffffffffffffffff92909216919091179055565b6060610200826102e1565b60405160200180807f68747470733a2f2f626173655552492e6e65742f00000000000000000000000081525060140182805190602001908083835b6020831061027857805182527fffffffffffffffffffffffffffffffffffffffffffffffffffffffffffffffe0909201916020918201910161023b565b6001836020036101000a03801982511681845116808217855250505050505090500191505060405160208183030381529060405290505b919050565b600055565b60015473ffffffffffffffffffffffffffffffffffffffff1690565b60005490565b611f4090565b606081610322575060408051808201909152600181527f300000000000000000000000000000000000000000000000000000000000000060208201526102af565b8160005b811561033a57600101600a82049150610326565b60008167ffffffffffffffff8111801561035357600080fd5b506040519080825280601f01601f19166020018201604052801561037e576020820181803683370190505b5085935090507fffffffffffffffffffffffffffffffffffffffffffffffffffffffffffffffff82015b831561040557600a840660300160f81b828280600190039350815181106103cb57fe5b60200101907effffffffffffffffffffffffffffffffffffffffffffffffffffffffffffff1916908160001a905350600a840493506103a8565b5094935050505056fea26469706673582212209338081681570406afb144924667d95feecc8d6e8548d7f8dc4526e7ad9dd3db64736f6c63430007060033",
  "linkReferences": {},
  "deployedLinkReferences": {}
}